:02000000522A82
:06000600000000000800EC
:10000C000F3083120313FC004730FD00FD0B0C284E
:0A001C00FC0B0C2800000000080097
:0E002600213083120313FD00FD0B1728080084
:1000340083160313E81B21288312861223288312B4
:1000440086168316681B2928831206122B2883120E
:1000540006168316E81A3128831286113328831270
:1000640086158316681A3928831206113B288312D1
:10007400061566183F280614402806108614032027
:1000840086108316E8194928831286124B28831296
:100094008616831668195128831206125328831270
:1000A40006168316E8185928831286115B288312D2
:1000B4008615831668186128831206116328831233
:1000C4000615661867280614682806108614032087
:0E00D4008610661C6F28062070281320080076
:1000E20083120313F801F9011030FC00710DF80DB1
:1000F200F90D7408F8027508031C750FF90203184C
:1001020089287408F80775080318750FF907031092
:0A011200F00DF10DFC0B772808003A
:10011C00831603139818942800008E286308831202
:04012C00990008002E
:1001300083120313661083166308E8001A206614FE
:020140000800B5
:1001420083160313E601053066020318AF2866081A
:100152006507840020308000E60AA4286608650747
:1001620084008001E60366086507E7000A30F400B0
:10017200F5016308F0006408F10071207808F000CE
:100182007908F1003030F0078316670884007008A0
:1001920080000A30F400F5016308F0006408F10001
:1001A200712070088316E3007108E40000307106C4
:1001B200031DDD2800307006031DE028E228E60357
:0401C200B428080055
:0E01C6008312031365088A0064088200080093
:1001D4000E3083120313FD00FD0BEE28000008000F
:1001E400831203139F01C0309F046309F000700859
:1001F40083169F051F179F1783126908F000F00DDF
:100204007010F00D7010F00D701070089F041F1422
:10021400EA201F151F1D102900000C291F101E089D
:10022400F100F00183161E08F0040030F104080008
:100234002C29803083120313E9003F29C030E900E0
:100244003F299430E9003F29D430E9003F29803028
:10025400E9003F29831203136908013A03191B2992
:100264006908023A031920296908033A0319232962
:100274006908043A0319262929296A03F000690840
:10028400F0077008E90070088316E8001A20661069
:10029400EC016C086B078400000803195A296C08E8
:1002A4006B07840000088316E3009820EC0A4B29AE
:0402B40066140800C4
:1002B80083120313EB01690884000008EA006A0846
:1002C800003A031972296A088316E3008E20EB0AA4
:0E02D8006B08690784000008EA00632908002B
:1002E60083120313EE01EF0169088316E1008312FE
:1002F6006A088316E200803083126A06F0008030B6
:100306007002031D882900306902031899290130FB
:10031600EE000030EF006908003C8316E10083120E
:100326006A08031C013E8316E201E2028316610895
:10033600E3006208E40083126B088316E500A1203F
:1003460006308312EC000030ED006D08003C031D02
:10035600AE296C08003C0318C9296C086B07F2002B
:1003660001306C02F0000030031C013E6D02F1000A
:1003760070086B0784000008F0007208840070089B
:1003860080000130EC02031CED03A8296B088400F1
:10039600203080006E086F040319E729EC01ED0197
:1003A6006C086B0784000008203A031DDE29EC0A5E
:1003B6000319ED0AD3290130EC02031CED036C0886
:0A03C6006B0784002D308000080052
:1003D000831603139816903083129800831687179C
:1003E000071383128C1EF7291A08F000F129080060
:1003F0008316031386100610061186110612861244
:100400008312861006108612061286110611062027
:100410000620062086150615861403208610062061
:1004200086140320861006208614032086100620DA
:1004300006118614032086100620861403208610D9
:10044000861186168614032086100620861206154D
:1004500086140320861006118614032086100620B9
:1004600086140320861006158614032086100620A5
:1004700006118614032086108616061686150615A4
:0C04800086140320861006206614080075
:10048C00E3208A110A128000840AE40A0319E50A9F
:08049C00F003031D462A0800CD
:1004A4008023F82101308316E8001A200C308316CB
:1004B400E8001A20803083169F00FF308500333017
:1004C40099001815E8210230FB000430FC00BA3012
:1004D400FD00FD0B6B2AFC0B6B2AFB0B6B2A000047
:1004E4000130E9000130EA002E30EB001A2102301D
:1004F400E9000130EA002030EB001A21AF30E900B6
:100504005C210D308316E3008E200A308316E3004D
:100514008E200B30FB002630FC005D30FD00FD0B0F
:10052400912AFC0B912AFB0B912A00000000013058
:100534008316E8001A200C308316E8001A2083166C
:10054400071083120710E901F22070088312E700F4
:100554007108E8007008E9007108EA00D130EB0086
:1005640073210130E9000130EA00A030EB001A21C8
:100574000230E9000130EA00D130EB001A214F309B
:10058400E9005C21D130E9005C210D308316E300E1
:100594008E200A308316E3008E206808003C031D79
:1005A400D52A6708283C031CEE2A07140230E90008
:1005B4000A30EA004630EB001A210630FB00133003
:1005C400FC00AD30FD00FD0BE52AFC0BE52AFB0B1E
:1005D400E52A00000000F62A07100230E9000A307C
:1005E400EA005A30EB001A210B30FB002630FC00E5
:1005F4005D30FD00FD0BFC2AFC0BFC2AFB0BFC2AE6
:0806040000000000A52A052BEF
:1007000020308400443083120313F0000B30E400E7
:100710000330E5004622A030840031300313F0009E
:0C0720004F30E4000330E50046220800E2
:10061600203420342034533459345334543445343C
:0C0626004D3420342034203420340034C3
:1006320053344D34413452345434203449345234D6
:100642005234493447344134543449344F344E34AB
:100652002034533459345334543445344D340034F3
:10066200503475346D34703420344F344E34203469
:02067200003452
:100674004D346F346934733474347534723465347E
:060684003A34203400347A
:10068A00503475346D34703420344F344634463423
:02069A0000342A
:02069C000F3419
:10069E0053346F3469346C3420344D346F346934D0
:0E06AE00733474347534723465343A34003465
:1006BC0053344D344134523454342034493452344C
:1006CC005234493447344134543449344F344E3421
:1006DC00203453345934533445344D34203442345B
:1006EC0059342034473452344F3455345034203438
:0406FC00463400344C
:02400E004A2F37
:00000001FF
